{
    "contractName": "Rent",
    "abi": [
        {
            "inputs": [
                {
                    "internalType": "string",
                    "name": "name_",
                    "type": "string"
                },
                {
                    "internalType": "string",
                    "name": "symbol_",
                    "type": "string"
                },
                {
                    "internalType": "string",
                    "name": "uri_",
                    "type": "string"
                },
                {
                    "internalType": "address",
                    "name": "tokenAddress",
                    "type": "address"
                },
                {
                    "internalType": "address",
                    "name": "multisign_",
                    "type": "address"
                }
            ],
            "stateMutability": "nonpayable",
            "type": "constructor"
        },
        {
            "anonymous": false,
            "inputs": [
                {
                    "indexed": true,
                    "internalType": "address",
                    "name": "owner",
                    "type": "address"
                },
                {
                    "indexed": true,
                    "internalType": "address",
                    "name": "approved",
                    "type": "address"
                },
                {
                    "indexed": true,
                    "internalType": "uint256",
                    "name": "tokenId",
                    "type": "uint256"
                }
            ],
            "name": "Approval",
            "type": "event"
        },
        {
            "anonymous": false,
            "inputs": [
                {
                    "indexed": true,
                    "internalType": "address",
                    "name": "owner",
                    "type": "address"
                },
                {
                    "indexed": true,
                    "internalType": "address",
                    "name": "operator",
                    "type": "address"
                },
                {
                    "indexed": false,
                    "internalType": "bool",
                    "name": "approved",
                    "type": "bool"
                }
            ],
            "name": "ApprovalForAll",
            "type": "event"
        },
        {
            "anonymous": false,
            "inputs": [
                {
                    "indexed": true,
                    "internalType": "address",
                    "name": "previousOwner",
                    "type": "address"
                },
                {
                    "indexed": true,
                    "internalType": "address",
                    "name": "newOwner",
                    "type": "address"
                }
            ],
            "name": "OwnershipTransferred",
            "type": "event"
        },
        {
            "anonymous": false,
            "inputs": [
                {
                    "indexed": true,
                    "internalType": "address",
                    "name": "_owner",
                    "type": "address"
                },
                {
                    "indexed": true,
                    "internalType": "address",
                    "name": "_beneficiary",
                    "type": "address"
                },
                {
                    "indexed": false,
                    "internalType": "uint256",
                    "name": "_amount",
                    "type": "uint256"
                }
            ],
            "name": "Renting",
            "type": "event"
        },
        {
            "anonymous": false,
            "inputs": [
                {
                    "indexed": true,
                    "internalType": "address",
                    "name": "from",
                    "type": "address"
                },
                {
                    "indexed": true,
                    "internalType": "address",
                    "name": "to",
                    "type": "address"
                },
                {
                    "indexed": true,
                    "internalType": "uint256",
                    "name": "tokenId",
                    "type": "uint256"
                }
            ],
            "name": "Transfer",
            "type": "event"
        },
        {
            "inputs": [],
            "name": "_end",
            "outputs": [
                {
                    "internalType": "uint64",
                    "name": "",
                    "type": "uint64"
                }
            ],
            "stateMutability": "view",
            "type": "function"
        },
        {
            "inputs": [],
            "name": "_start",
            "outputs": [
                {
                    "internalType": "uint64",
                    "name": "",
                    "type": "uint64"
                }
            ],
            "stateMutability": "view",
            "type": "function"
        },
        {
            "inputs": [
                {
                    "internalType": "address",
                    "name": "to",
                    "type": "address"
                },
                {
                    "internalType": "uint256",
                    "name": "tokenId",
                    "type": "uint256"
                }
            ],
            "name": "approve",
            "outputs": [],
            "stateMutability": "nonpayable",
            "type": "function"
        },
        {
            "inputs": [
                {
                    "internalType": "address",
                    "name": "owner",
                    "type": "address"
                }
            ],
            "name": "balanceOf",
            "outputs": [
                {
                    "internalType": "uint256",
                    "name": "",
                    "type": "uint256"
                }
            ],
            "stateMutability": "view",
            "type": "function"
        },
        {
            "inputs": [],
            "name": "claim",
            "outputs": [],
            "stateMutability": "nonpayable",
            "type": "function"
        },
        {
            "inputs": [
                {
                    "internalType": "address",
                    "name": "_beneficiary",
                    "type": "address"
                },
                {
                    "internalType": "uint256",
                    "name": "tokenId",
                    "type": "uint256"
                }
            ],
            "name": "exit",
            "outputs": [],
            "stateMutability": "nonpayable",
            "type": "function"
        },
        {
            "inputs": [
                {
                    "internalType": "uint256",
                    "name": "tokenId",
                    "type": "uint256"
                }
            ],
            "name": "getApproved",
            "outputs": [
                {
                    "internalType": "address",
                    "name": "",
                    "type": "address"
                }
            ],
            "stateMutability": "view",
            "type": "function"
        },
        {
            "inputs": [
                {
                    "internalType": "address",
                    "name": "_beneficiary",
                    "type": "address"
                }
            ],
            "name": "getNFT",
            "outputs": [
                {
                    "internalType": "uint256",
                    "name": "",
                    "type": "uint256"
                }
            ],
            "stateMutability": "view",
            "type": "function"
        },
        {
            "inputs": [
                {
                    "internalType": "uint256",
                    "name": "_tokenId",
                    "type": "uint256"
                }
            ],
            "name": "getOwnership",
            "outputs": [
                {
                    "internalType": "address",
                    "name": "",
                    "type": "address"
                }
            ],
            "stateMutability": "view",
            "type": "function"
        },
        {
            "inputs": [
                {
                    "internalType": "address",
                    "name": "owner",
                    "type": "address"
                },
                {
                    "internalType": "address",
                    "name": "operator",
                    "type": "address"
                }
            ],
            "name": "isApprovedForAll",
            "outputs": [
                {
                    "internalType": "bool",
                    "name": "",
                    "type": "bool"
                }
            ],
            "stateMutability": "view",
            "type": "function"
        },
        {
            "inputs": [
                {
                    "internalType": "uint256",
                    "name": "tokenId",
                    "type": "uint256"
                }
            ],
            "name": "mint",
            "outputs": [],
            "stateMutability": "nonpayable",
            "type": "function"
        },
        {
            "inputs": [],
            "name": "name",
            "outputs": [
                {
                    "internalType": "string",
                    "name": "",
                    "type": "string"
                }
            ],
            "stateMutability": "view",
            "type": "function"
        },
        {
            "inputs": [
                {
                    "internalType": "uint256",
                    "name": "",
                    "type": "uint256"
                }
            ],
            "name": "ownedNFTs",
            "outputs": [
                {
                    "internalType": "address",
                    "name": "",
                    "type": "address"
                }
            ],
            "stateMutability": "view",
            "type": "function"
        },
        {
            "inputs": [],
            "name": "owner",
            "outputs": [
                {
                    "internalType": "address",
                    "name": "",
                    "type": "address"
                }
            ],
            "stateMutability": "view",
            "type": "function"
        },
        {
            "inputs": [
                {
                    "internalType": "uint256",
                    "name": "tokenId",
                    "type": "uint256"
                }
            ],
            "name": "ownerOf",
            "outputs": [
                {
                    "internalType": "address",
                    "name": "",
                    "type": "address"
                }
            ],
            "stateMutability": "view",
            "type": "function"
        },
        {
            "inputs": [
                {
                    "internalType": "address",
                    "name": "",
                    "type": "address"
                }
            ],
            "name": "owners",
            "outputs": [
                {
                    "internalType": "uint256",
                    "name": "",
                    "type": "uint256"
                }
            ],
            "stateMutability": "view",
            "type": "function"
        },
        {
            "inputs": [],
            "name": "renounceOwnership",
            "outputs": [],
            "stateMutability": "nonpayable",
            "type": "function"
        },
        {
            "inputs": [
                {
                    "internalType": "uint256",
                    "name": "_rentingPrice",
                    "type": "uint256"
                },
                {
                    "internalType": "address",
                    "name": "_beneficiary",
                    "type": "address"
                },
                {
                    "internalType": "uint256",
                    "name": "tokenId",
                    "type": "uint256"
                }
            ],
            "name": "rent",
            "outputs": [],
            "stateMutability": "payable",
            "type": "function"
        },
        {
            "inputs": [],
            "name": "rentingPrice",
            "outputs": [
                {
                    "internalType": "uint256",
                    "name": "",
                    "type": "uint256"
                }
            ],
            "stateMutability": "view",
            "type": "function"
        },
        {
            "inputs": [
                {
                    "internalType": "address",
                    "name": "from",
                    "type": "address"
                },
                {
                    "internalType": "address",
                    "name": "to",
                    "type": "address"
                },
                {
                    "internalType": "uint256",
                    "name": "tokenId",
                    "type": "uint256"
                }
            ],
            "name": "safeTransferFrom",
            "outputs": [],
            "stateMutability": "nonpayable",
            "type": "function"
        },
        {
            "inputs": [
                {
                    "internalType": "address",
                    "name": "from",
                    "type": "address"
                },
                {
                    "internalType": "address",
                    "name": "to",
                    "type": "address"
                },
                {
                    "internalType": "uint256",
                    "name": "tokenId",
                    "type": "uint256"
                },
                {
                    "internalType": "bytes",
                    "name": "_data",
                    "type": "bytes"
                }
            ],
            "name": "safeTransferFrom",
            "outputs": [],
            "stateMutability": "nonpayable",
            "type": "function"
        },
        {
            "inputs": [
                {
                    "internalType": "address",
                    "name": "operator",
                    "type": "address"
                },
                {
                    "internalType": "bool",
                    "name": "approved",
                    "type": "bool"
                }
            ],
            "name": "setApprovalForAll",
            "outputs": [],
            "stateMutability": "nonpayable",
            "type": "function"
        },
        {
            "inputs": [
                {
                    "internalType": "bytes4",
                    "name": "interfaceId",
                    "type": "bytes4"
                }
            ],
            "name": "supportsInterface",
            "outputs": [
                {
                    "internalType": "bool",
                    "name": "",
                    "type": "bool"
                }
            ],
            "stateMutability": "view",
            "type": "function"
        },
        {
            "inputs": [],
            "name": "symbol",
            "outputs": [
                {
                    "internalType": "string",
                    "name": "",
                    "type": "string"
                }
            ],
            "stateMutability": "view",
            "type": "function"
        },
        {
            "inputs": [
                {
                    "internalType": "uint256",
                    "name": "tokenId",
                    "type": "uint256"
                }
            ],
            "name": "tokenURI",
            "outputs": [
                {
                    "internalType": "string",
                    "name": "",
                    "type": "string"
                }
            ],
            "stateMutability": "view",
            "type": "function"
        },
        {
            "inputs": [
                {
                    "internalType": "address",
                    "name": "from",
                    "type": "address"
                },
                {
                    "internalType": "address",
                    "name": "to",
                    "type": "address"
                },
                {
                    "internalType": "uint256",
                    "name": "tokenId",
                    "type": "uint256"
                }
            ],
            "name": "transferFrom",
            "outputs": [],
            "stateMutability": "nonpayable",
            "type": "function"
        },
        {
            "inputs": [
                {
                    "internalType": "address",
                    "name": "newOwner",
                    "type": "address"
                }
            ],
            "name": "transferOwnership",
            "outputs": [],
            "stateMutability": "nonpayable",
            "type": "function"
        },
        {
            "inputs": [],
            "name": "uri",
            "outputs": [
                {
                    "internalType": "string",
                    "name": "",
                    "type": "string"
                }
            ],
            "stateMutability": "view",
            "type": "function"
        }
    ],
    "bytecode": "6080604052600780546001600160a01b031916331790553480156200002357600080fd5b5060405162002005380380620020058339810160408190526200004691620002d4565b8451859085906200005f90600090602085019062000144565b5080516200007590600190602084019062000144565b505050620000926200008c620000ee60201b60201c565b620000f2565b600d80546001600160a01b0319166001600160a01b0384161790558251620000c290600b90602086019062000144565b50600c80546001600160a01b0319166001600160a01b039290921691909117905550620003c792505050565b3390565b600680546001600160a01b038381166001600160a01b0319831681179093556040519116919082907f8be0079c531659141344cd1fd0a4f28419497f9722a3daafe3b4186f6b6457e090600090a35050565b82805462000152906200038b565b90600052602060002090601f016020900481019282620001765760008555620001c1565b82601f106200019157805160ff1916838001178555620001c1565b82800160010185558215620001c1579182015b82811115620001c1578251825591602001919060010190620001a4565b50620001cf929150620001d3565b5090565b5b80821115620001cf5760008155600101620001d4565b634e487b7160e01b600052604160045260246000fd5b600082601f8301126200021257600080fd5b81516001600160401b03808211156200022f576200022f620001ea565b604051601f8301601f19908116603f011681019082821181831017156200025a576200025a620001ea565b816040528381526020925086838588010111156200027757600080fd5b600091505b838210156200029b57858201830151818301840152908201906200027c565b83821115620002ad5760008385830101525b9695505050505050565b80516001600160a01b0381168114620002cf57600080fd5b919050565b600080600080600060a08688031215620002ed57600080fd5b85516001600160401b03808211156200030557600080fd5b6200031389838a0162000200565b965060208801519150808211156200032a57600080fd5b6200033889838a0162000200565b955060408801519150808211156200034f57600080fd5b506200035e8882890162000200565b9350506200036f60608701620002b7565b91506200037f60808701620002b7565b90509295509295909350565b600181811c90821680620003a057607f821691505b602082108103620003c157634e487b7160e01b600052602260045260246000fd5b50919050565b611c2e80620003d76000396000f3fe6080604052600436106101b75760003560e01c8063715018a6116100ec578063b88d4fde1161008a578063e985e9c511610064578063e985e9c514610537578063eac989f814610580578063ef693bed14610595578063f2fde38b146105b557600080fd5b8063b88d4fde146104e4578063c87b56dd14610504578063dac707d81461052457600080fd5b806395d89b41116100c657806395d89b41146104595780639614ab151461046e578063a0712d68146104a4578063a22cb465146104c457600080fd5b8063715018a6146104105780637a04b1bd146104255780638da5cb5b1461043b57600080fd5b80633c20ee6e1161015957806353ef67811161013357806353ef6781146103795780636352211e1461039a578063704044dc146103ba57806370a08231146103f057600080fd5b80633c20ee6e146102fe57806342842e0e146103445780634e71d92d1461036457600080fd5b8063081812fc11610195578063081812fc1461024e578063095ea7b314610286578063161a6c1e146102a857806323b872dd146102de57600080fd5b806301ffc9a7146101bc578063022914a7146101f157806306fdde031461022c575b600080fd5b3480156101c857600080fd5b506101dc6101d73660046116a2565b6105d5565b60405190151581526020015b60405180910390f35b3480156101fd57600080fd5b5061021e61020c3660046116db565b600e6020526000908152604090205481565b6040519081526020016101e8565b34801561023857600080fd5b50610241610627565b6040516101e8919061174e565b34801561025a57600080fd5b5061026e610269366004611761565b6106b9565b6040516001600160a01b0390911681526020016101e8565b34801561029257600080fd5b506102a66102a136600461177a565b610753565b005b3480156102b457600080fd5b5061021e6102c33660046116db565b6001600160a01b03166000908152600e602052604090205490565b3480156102ea57600080fd5b506102a66102f93660046117a4565b610868565b34801561030a57600080fd5b50600a5461032b9068010000000000000000900467ffffffffffffffff1681565b60405167ffffffffffffffff90911681526020016101e8565b34801561035057600080fd5b506102a661035f3660046117a4565b610899565b34801561037057600080fd5b506102a66108b4565b34801561038557600080fd5b50600a5461032b9067ffffffffffffffff1681565b3480156103a657600080fd5b5061026e6103b5366004611761565b6109c8565b3480156103c657600080fd5b5061026e6103d5366004611761565b6000908152600f60205260409020546001600160a01b031690565b3480156103fc57600080fd5b5061021e61040b3660046116db565b610a3f565b34801561041c57600080fd5b506102a6610ac6565b34801561043157600080fd5b5061021e60095481565b34801561044757600080fd5b506006546001600160a01b031661026e565b34801561046557600080fd5b50610241610afc565b34801561047a57600080fd5b5061026e610489366004611761565b600f602052600090815260409020546001600160a01b031681565b3480156104b057600080fd5b506102a66104bf366004611761565b610b0b565b3480156104d057600080fd5b506102a66104df3660046117ee565b610b4e565b3480156104f057600080fd5b506102a66104ff36600461183b565b610b59565b34801561051057600080fd5b5061024161051f366004611761565b610b91565b6102a6610532366004611917565b610c79565b34801561054357600080fd5b506101dc61055236600461193c565b6001600160a01b03918216600090815260056020908152604080832093909416825291909152205460ff1690565b34801561058c57600080fd5b50610241610d81565b3480156105a157600080fd5b506102a66105b036600461177a565b610e0f565b3480156105c157600080fd5b506102a66105d03660046116db565b610e27565b60006001600160e01b031982166380ac58cd60e01b148061060657506001600160e01b03198216635b5e139f60e01b145b8061062157506301ffc9a760e01b6001600160e01b03198316145b92915050565b6060600080546106369061196f565b80601f01602080910402602001604051908101604052809291908181526020018280546106629061196f565b80156106af5780601f10610684576101008083540402835291602001916106af565b820191906000526020600020905b81548152906001019060200180831161069257829003601f168201915b5050505050905090565b6000818152600260205260408120546001600160a01b03166107375760405162461bcd60e51b815260206004820152602c60248201527f4552433732313a20617070726f76656420717565727920666f72206e6f6e657860448201526b34b9ba32b73a103a37b5b2b760a11b60648201526084015b60405180910390fd5b506000908152600460205260409020546001600160a01b031690565b600061075e826109c8565b9050806001600160a01b0316836001600160a01b0316036107cb5760405162461bcd60e51b815260206004820152602160248201527f4552433732313a20617070726f76616c20746f2063757272656e74206f776e656044820152603960f91b606482015260840161072e565b336001600160a01b03821614806107e757506107e78133610552565b6108595760405162461bcd60e51b815260206004820152603860248201527f4552433732313a20617070726f76652063616c6c6572206973206e6f74206f7760448201527f6e6572206e6f7220617070726f76656420666f7220616c6c0000000000000000606482015260840161072e565b6108638383610ebf565b505050565b6108723382610f2d565b61088e5760405162461bcd60e51b815260040161072e906119a9565b610863838383611024565b61086383838360405180602001604052806000815250610b59565b6006546001600160a01b031633146108de5760405162461bcd60e51b815260040161072e906119fa565b600a546305265c0090601e906108ff90839067ffffffffffffffff16611a5b565b6109099042611a6f565b10156109415760405162461bcd60e51b8152602060048201526007602482015266115e1c1a5c995960ca1b604482015260640161072e565b600d546007546009546040516323b872dd60e01b81523060048201526001600160a01b03928316602482015260448101919091529116906323b872dd906064016020604051808303816000875af11580156109a0573d6000803e3d6000fd5b505050506040513d601f19601f820116820180604052508101906109c49190611a86565b5050565b6000818152600260205260408120546001600160a01b0316806106215760405162461bcd60e51b815260206004820152602960248201527f4552433732313a206f776e657220717565727920666f72206e6f6e657869737460448201526832b73a103a37b5b2b760b91b606482015260840161072e565b60006001600160a01b038216610aaa5760405162461bcd60e51b815260206004820152602a60248201527f4552433732313a2062616c616e636520717565727920666f7220746865207a65604482015269726f206164647265737360b01b606482015260840161072e565b506001600160a01b031660009081526003602052604090205490565b6006546001600160a01b03163314610af05760405162461bcd60e51b815260040161072e906119fa565b610afa60006111c0565b565b6060600180546106369061196f565b6006546001600160a01b03163314610b355760405162461bcd60e51b815260040161072e906119fa565b600754610b4b906001600160a01b031682611212565b50565b6109c4338383611354565b610b633383610f2d565b610b7f5760405162461bcd60e51b815260040161072e906119a9565b610b8b84848484611422565b50505050565b6000818152600260205260409020546060906001600160a01b0316610c105760405162461bcd60e51b815260206004820152602f60248201527f4552433732314d657461646174613a2055524920717565727920666f72206e6f60448201526e3732bc34b9ba32b73a103a37b5b2b760891b606482015260840161072e565b6000610c2760408051602081019091526000815290565b90506000815111610c475760405180602001604052806000815250610c72565b80610c5184611455565b604051602001610c62929190611aa3565b6040516020818303038152906040525b9392505050565b6000610c8484611556565b600754909250610c9e91506001600160a01b031683610753565b600754610cb5906001600160a01b03168484610868565b600d546007546040516323b872dd60e01b81526001600160a01b0391821660048201528582166024820152604481018490529116906323b872dd906064016020604051808303816000875af1158015610d12573d6000803e3d6000fd5b505050506040513d601f19601f82011682018060405250810190610d369190611a86565b506007546040518581526001600160a01b038581169216907fd91634f64e94e2d8840c7731282a3ee20cb00bc08f8d250f42b0cf2a2c818b909060200160405180910390a350505050565b600b8054610d8e9061196f565b80601f0160208091040260200160405190810160405280929190818152602001828054610dba9061196f565b8015610e075780601f10610ddc57610100808354040283529160200191610e07565b820191906000526020600020905b815481529060010190602001808311610dea57829003601f168201915b505050505081565b6007546109c49083906001600160a01b031683610868565b6006546001600160a01b03163314610e515760405162461bcd60e51b815260040161072e906119fa565b6001600160a01b038116610eb65760405162461bcd60e51b815260206004820152602660248201527f4f776e61626c653a206e6577206f776e657220697320746865207a65726f206160448201526564647265737360d01b606482015260840161072e565b610b4b816111c0565b600081815260046020526040902080546001600160a01b0319166001600160a01b0384169081179091558190610ef4826109c8565b6001600160a01b03167f8c5be1e5ebec7d5bd14f71427d1e84f3dd0314c0f7b2291e5b200ac8c7c3b92560405160405180910390a45050565b6000818152600260205260408120546001600160a01b0316610fa65760405162461bcd60e51b815260206004820152602c60248201527f4552433732313a206f70657261746f7220717565727920666f72206e6f6e657860448201526b34b9ba32b73a103a37b5b2b760a11b606482015260840161072e565b6000610fb1836109c8565b9050806001600160a01b0316846001600160a01b03161480610ff857506001600160a01b0380821660009081526005602090815260408083209388168352929052205460ff165b8061101c5750836001600160a01b0316611011846106b9565b6001600160a01b0316145b949350505050565b826001600160a01b0316611037826109c8565b6001600160a01b03161461109b5760405162461bcd60e51b815260206004820152602560248201527f4552433732313a207472616e736665722066726f6d20696e636f72726563742060448201526437bbb732b960d91b606482015260840161072e565b6001600160a01b0382166110fd5760405162461bcd60e51b8152602060048201526024808201527f4552433732313a207472616e7366657220746f20746865207a65726f206164646044820152637265737360e01b606482015260840161072e565b611108600082610ebf565b6001600160a01b0383166000908152600360205260408120805460019290611131908490611a6f565b90915550506001600160a01b038216600090815260036020526040812080546001929061115f908490611ad2565b909155505060008181526002602052604080822080546001600160a01b0319166001600160a01b0386811691821790925591518493918716917fddf252ad1be2c89b69c2b068fc378daa952ba7f163c4a11628f55a4df523b3ef91a4505050565b600680546001600160a01b038381166001600160a01b0319831681179093556040519116919082907f8be0079c531659141344cd1fd0a4f28419497f9722a3daafe3b4186f6b6457e090600090a35050565b6001600160a01b0382166112685760405162461bcd60e51b815260206004820181905260248201527f4552433732313a206d696e7420746f20746865207a65726f2061646472657373604482015260640161072e565b6000818152600260205260409020546001600160a01b0316156112cd5760405162461bcd60e51b815260206004820152601c60248201527f4552433732313a20746f6b656e20616c7265616479206d696e74656400000000604482015260640161072e565b6001600160a01b03821660009081526003602052604081208054600192906112f6908490611ad2565b909155505060008181526002602052604080822080546001600160a01b0319166001600160a01b03861690811790915590518392907fddf252ad1be2c89b69c2b068fc378daa952ba7f163c4a11628f55a4df523b3ef908290a45050565b816001600160a01b0316836001600160a01b0316036113b55760405162461bcd60e51b815260206004820152601960248201527f4552433732313a20617070726f766520746f2063616c6c657200000000000000604482015260640161072e565b6001600160a01b03838116600081815260056020908152604080832094871680845294825291829020805460ff191686151590811790915591519182527f17307eab39ab6107e8899845ad3d59bd9653f200f220920489ca2b5937696c31910160405180910390a3505050565b61142d848484611024565b6114398484848461158b565b610b8b5760405162461bcd60e51b815260040161072e90611aea565b60608160000361147c5750506040805180820190915260018152600360fc1b602082015290565b8160005b81156114a6578061149081611b3c565b915061149f9050600a83611a5b565b9150611480565b60008167ffffffffffffffff8111156114c1576114c1611825565b6040519080825280601f01601f1916602001820160405280156114eb576020820181803683370190505b5090505b841561101c57611500600183611a6f565b915061150d600a86611b55565b611518906030611ad2565b60f81b81838151811061152d5761152d611b69565b60200101906001600160f81b031916908160001a90535061154f600a86611a5b565b94506114ef565b600080806003611567606486611a5b565b6115719190611b7f565b9050600061157f8286611a6f565b91959194509092505050565b60006001600160a01b0384163b1561168157604051630a85bd0160e11b81526001600160a01b0385169063150b7a02906115cf903390899088908890600401611b9e565b6020604051808303816000875af192505050801561160a575060408051601f3d908101601f1916820190925261160791810190611bdb565b60015b611667573d808015611638576040519150601f19603f3d011682016040523d82523d6000602084013e61163d565b606091505b50805160000361165f5760405162461bcd60e51b815260040161072e90611aea565b805181602001fd5b6001600160e01b031916630a85bd0160e11b14905061101c565b506001949350505050565b6001600160e01b031981168114610b4b57600080fd5b6000602082840312156116b457600080fd5b8135610c728161168c565b80356001600160a01b03811681146116d657600080fd5b919050565b6000602082840312156116ed57600080fd5b610c72826116bf565b60005b838110156117115781810151838201526020016116f9565b83811115610b8b5750506000910152565b6000815180845261173a8160208601602086016116f6565b601f01601f19169290920160200192915050565b602081526000610c726020830184611722565b60006020828403121561177357600080fd5b5035919050565b6000806040838503121561178d57600080fd5b611796836116bf565b946020939093013593505050565b6000806000606084860312156117b957600080fd5b6117c2846116bf565b92506117d0602085016116bf565b9150604084013590509250925092565b8015158114610b4b57600080fd5b6000806040838503121561180157600080fd5b61180a836116bf565b9150602083013561181a816117e0565b809150509250929050565b634e487b7160e01b600052604160045260246000fd5b6000806000806080858703121561185157600080fd5b61185a856116bf565b9350611868602086016116bf565b925060408501359150606085013567ffffffffffffffff8082111561188c57600080fd5b818701915087601f8301126118a057600080fd5b8135818111156118b2576118b2611825565b604051601f8201601f19908116603f011681019083821181831017156118da576118da611825565b816040528281528a60208487010111156118f357600080fd5b82602086016020830137600060208483010152809550505050505092959194509250565b60008060006060848603121561192c57600080fd5b833592506117d0602085016116bf565b6000806040838503121561194f57600080fd5b611958836116bf565b9150611966602084016116bf565b90509250929050565b600181811c9082168061198357607f821691505b6020821081036119a357634e487b7160e01b600052602260045260246000fd5b50919050565b60208082526031908201527f4552433732313a207472616e736665722063616c6c6572206973206e6f74206f6040820152701ddb995c881b9bdc88185c1c1c9bdd9959607a1b606082015260800190565b6020808252818101527f4f776e61626c653a2063616c6c6572206973206e6f7420746865206f776e6572604082015260600190565b634e487b7160e01b600052601260045260246000fd5b634e487b7160e01b600052601160045260246000fd5b600082611a6a57611a6a611a2f565b500490565b600082821015611a8157611a81611a45565b500390565b600060208284031215611a9857600080fd5b8151610c72816117e0565b60008351611ab58184602088016116f6565b835190830190611ac98183602088016116f6565b01949350505050565b60008219821115611ae557611ae5611a45565b500190565b60208082526032908201527f4552433732313a207472616e7366657220746f206e6f6e20455243373231526560408201527131b2b4bb32b91034b6b83632b6b2b73a32b960711b606082015260800190565b600060018201611b4e57611b4e611a45565b5060010190565b600082611b6457611b64611a2f565b500690565b634e487b7160e01b600052603260045260246000fd5b6000816000190483118215151615611b9957611b99611a45565b500290565b6001600160a01b0385811682528416602082015260408101839052608060608201819052600090611bd190830184611722565b9695505050505050565b600060208284031215611bed57600080fd5b8151610c728161168c56fea26469706673582212202462642dd46cea6b9435e13a86d0b43635bfbfa433f92a5260947af848bb260064736f6c634300080e0033",
    "sourcePath": "//wsl.localhost/Ubuntu/home/bryanox/documents/hackaton/crypto_coso/contracts/Rent.sol",
    "compiler": {
        "name": "solc",
        "version": "0.8.14+commit.80d49f37"
    },
    "functionHashes": {
        "_end()": "3c20ee6e",
        "_start()": "53ef6781",
        "approve(address,uint256)": "095ea7b3",
        "balanceOf(address)": "70a08231",
        "claim()": "4e71d92d",
        "exit(address,uint256)": "ef693bed",
        "getApproved(uint256)": "081812fc",
        "getNFT(address)": "161a6c1e",
        "getOwnership(uint256)": "704044dc",
        "isApprovedForAll(address,address)": "e985e9c5",
        "mint(uint256)": "a0712d68",
        "name()": "06fdde03",
        "ownedNFTs(uint256)": "9614ab15",
        "owner()": "8da5cb5b",
        "ownerOf(uint256)": "6352211e",
        "owners(address)": "022914a7",
        "renounceOwnership()": "715018a6",
        "rent(uint256,address,uint256)": "dac707d8",
        "rentingPrice()": "7a04b1bd",
        "safeTransferFrom(address,address,uint256)": "42842e0e",
        "safeTransferFrom(address,address,uint256,bytes)": "b88d4fde",
        "setApprovalForAll(address,bool)": "a22cb465",
        "supportsInterface(bytes4)": "01ffc9a7",
        "symbol()": "95d89b41",
        "tokenURI(uint256)": "c87b56dd",
        "transferFrom(address,address,uint256)": "23b872dd",
        "transferOwnership(address)": "f2fde38b",
        "uri()": "eac989f8"
    },
    "gasEstimates": {
        "creation": {
            "codeDepositCost": "1442800",
            "executionCost": "infinite",
            "totalCost": "infinite"
        },
        "external": {
            "_end()": "2370",
            "_start()": "2358",
            "approve(address,uint256)": "infinite",
            "balanceOf(address)": "2700",
            "claim()": "infinite",
            "exit(address,uint256)": "infinite",
            "getApproved(uint256)": "4738",
            "getNFT(address)": "2627",
            "getOwnership(uint256)": "2566",
            "isApprovedForAll(address,address)": "infinite",
            "mint(uint256)": "57465",
            "name()": "infinite",
            "ownedNFTs(uint256)": "2544",
            "owner()": "2421",
            "ownerOf(uint256)": "2623",
            "owners(address)": "2588",
            "renounceOwnership()": "28163",
            "rent(uint256,address,uint256)": "infinite",
            "rentingPrice()": "2363",
            "safeTransferFrom(address,address,uint256)": "infinite",
            "safeTransferFrom(address,address,uint256,bytes)": "infinite",
            "setApprovalForAll(address,bool)": "26823",
            "supportsInterface(bytes4)": "557",
            "symbol()": "infinite",
            "tokenURI(uint256)": "infinite",
            "transferFrom(address,address,uint256)": "infinite",
            "transferOwnership(address)": "28422",
            "uri()": "infinite"
        },
        "internal": {
            "_calculateFeeAndFinalPrice(uint256)": "274"
        }
    }
}